:1000000045C016C45EC05DC05CC05BC05AC059C06C
:1000100058C057C056C055C054C053C052C051C03C
:1000200022C24FC04EC04DC04CC04BC04AC049C098
:1000300048C047C00403090420036D0061006C0040
:100040007400650070006F00650067006700650060
:100050006C002E0064006500100355005300420040
:10006000460075006E006B0012011001FF000008D1
:10007000C016DC05000101020001090212000101A5
:1000800000801909040000000000000011241FBEB8
:10009000CFEFD2E0DEBFCDBF11E0A0E0B1E0ECE0F9
:1000A000FCE002C005900D92A230B107D9F711E033
:1000B000A2E0B1E001C01D92A933B107E1F73ED53E
:1000C000A3C59ECF389A409810920701109208015C
:1000D00010920D011092090185E080930E0183E0DA
:1000E00085BDEEE6F0E080818160808308951F93F6
:1000F000CF93DF9320E030E061E070E040E850E033
:10010000E22FA22FA695EB0102C0CC0FDD1FAA950E
:10011000E2F7DE01A823B923109759F0E695E6959A
:10012000E695F0E0E65FFE4F1081D901A770B07050
:1001300019C0E695E695E695D901A770B07020FF45
:100140000DC0F0E0E65FFE4F1081EA0102C0D595D8
:10015000C795AA95E2F71C2B10830EC0F0E0E65F6E
:10016000FE4F1081EA0102C0D595C795AA95E2F726
:10017000DE01A095A123A0832F5F3F4F28313105D9
:1001800009F0BECF1092090180910E018093070102
:10019000DF91CF911F910895EF92FF921F93CF931C
:1001A000DF9320E030E050E0E0E8F0E070E090E045
:1001B000122F2A3058F4A22FA6957C0102C0F59484
:1001C000E794AA95E2F7E0FE16C009C02431C8F50D
:1001D000D9011A97B595A7956A177B0761F416950B
:1001E00016951695C12FD0E0C65FDE4F1881D90154
:1001F000A770B0701BC0169516951695D901A770FB
:10020000B07020FF0EC0C12FD0E0C65FDE4F188156
:100210007F0102C0F594E794AA95E2F71E2918839E
:1002200040C0C12FD0E0C65FDE4F18817F0102C001
:10023000F594E794AA95E2F7D701A095A123A883A6
:1002400030C0D9015497B595A795EA0102C0D5955C
:10025000C795AA95E2F7C0FF06C010910C01D9011D
:10026000A770B07013C0D901A770B07020FF0CC088
:1002700010910C01EF0102C0D595C795AA95E2F740
:100280001C2B10930C010DC010910C017F0102C0BA
:10029000F594E794AA95E2F7D701A095A123A0933E
:1002A0000C012F5F3F4F2831310509F081CF1092AB
:1002B000090180910E0180930701DF91CF911F9179
:1002C000FF90EF9008951F93CF93DF9320E030E0ED
:1002D00050E0E0E8F0E070E090E0A22F283070F508
:1002E000A695EC0102C0D595C795AA95E2F7C0FF87
:1002F00006C010910A01D901A770B07013C0D901CE
:10030000A770B07020FF0CC010910A01EF0102C06D
:10031000D595C795AA95E2F71C2B10930A0171C0D9
:1003200010910A01EF0102C0D595C795AA95E2F791
:10033000DE01A095A123A0930A0163C0203188F5B6
:10034000D9011897B595A795EB0102C0D595C7952A
:10035000AA95E2F7C0FF06C010910B01D901A77062
:10036000B07013C0D901A770B07020FF0CC01091FD
:100370000B01EF0102C0D595C795AA95E2F71C2B9A
:1003800010930B013EC010910B01EF0102C0D595F7
:10039000C795AA95E2F7DE01A095A123A0930B01D2
:1003A00030C0D9015097B595A795EA0102C0D595FF
:1003B000C795AA95E2F7C0FF06C010910C01D901BC
:1003C000A770B07013C0D901A770B07020FF0CC027
:1003D00010910C01EF0102C0D595C795AA95E2F7DF
:1003E0001C2B10930C010DC010910C01EF0102C0E9
:1003F000D595C795AA95E2F7DE01A095A123A09314
:100400000C012F5F3F4F2831310509F066CF109264
:10041000090180910E0180930701DF91CF911F9117
:10042000089580930A0160930B0140930C01109290
:10043000090180910E0180930701089580930A01BC
:100440006295607F60930B0181E080930901809148
:100450000E018093070108959091070181E099238F
:1004600009F480E008951F920F920FB60F921124A5
:100470005F936F937F938F939F93AF93BF93EF930C
:10048000FF9380910701882309F4B6C08091090188
:10049000882321F0813009F0ADC04EC080910D015C
:1004A000882321F080910801882319F480E8809343
:1004B000080180910D01803350F580910D0180FD80
:1004C0000FC0409AE0910D01E295EF70F0E0E65F19
:1004D000FE4F808190910801892331F18EE425C07F
:1004E0004098E0910D01E295EF70F0E0E65FFE4F7D
:1004F000808190910801892311F084EC01C08EE481
:1005000086BD809108018695809308010FC0809177
:100510000D01803321F4409A84EC86BD05C08091A2
:100520000D01813309F4409884EC86BD80910D0162
:10053000803508F459C050C080910D01882321F006
:1005400080910801882319F480E880930801809144
:100550000D01823030F480910D018823B1F1409A71
:1005600018C080910D018B3180F580910D0180FDC7
:1005700012C0409880910D0190E0029760E170E018
:1005800006D3665F7E4FFB0180819091080189232D
:10059000E9F084EC1CC0409A80910D0190E0029734
:1005A00060E170E0F4D2665F7E4FFB018081909144
:1005B0000801892311F088E801C084EC86BD809190
:1005C000080186958093080103C0409888E886BD9D
:1005D00080910D01803240F010920D018091070151
:1005E00081508093070108C080910D018F5F809337
:1005F0000D0102C010920701FF91EF91BF91AF91E1
:100600009F918F917F916F915F910F900FBE0F908F
:100610001F9018951F93CF93DF9380911F018350F4
:1006200087FD88C090911C0120911B012D3209F09B
:100630007FC0883009F07CC0CCE0D0E0C91BD10974
:10064000CD5DDE4F83EC80930F018AE5809300013E
:10065000109202018881807619F0CE0116D25FC017
:100660009A81109218018981882331F4109219011E
:1006700028E131E082E04FC0853019F490932001E9
:1006800040C08630A9F58B81813019F488E690E06E
:1006900004C0823041F48AE790E090931E01809379
:1006A0001D0182E121C08330F1F4992341F484E3F8
:1006B00090E090931E0180931D0184E015C091305D
:1006C00041F488E390E090931E0180931D0180E245
:1006D0000BC0923041F488E590E090931E01809326
:1006E0001D0180E101C080E090E49093020117C0F9
:1006F000883059F0893019F49093220102C08A3071
:1007000039F028E131E080E006C022E231E002C0A9
:1007100028E131E081E030931E0120931D019F818B
:10072000992321F49E81981708F4892F8093010161
:1007300010921F018091000184FF4CC08091010143
:100740008F3F09F447C0182F893008F018E0811B4B
:100750008093010180910F0198E8892780930F0110
:10076000112361F180911D0190911E0130910201D0
:10077000212F215036FF0EC030E0A9014F5E5E4FA1
:10078000FC01A0E1B1E064916D933196A417B50727
:10079000D1F70CC0DC0130E0A9014F5E5E4FE0E113
:1007A000F1E06D916193E417F507D9F72F5F3F4FA3
:1007B000280F391F30931E0120931D0180E191E025
:1007C000612F32D01C5F1C3019F08FEF8093010134
:1007D0001093000184E193B1937031F48150D9F703
:1007E0001092200110921A01DF91CF911F9108956C
:1007F000E9E6F0E0808182608083E89A0895A82F7E
:10080000B92F80E090E041E050EA609530E009C007
:100810002D9182279795879510F084279527305E34
:10082000C8F36F5FA8F30895EADF8D939D93089551
:10083000CF93CFB7CF93C395189BE9F7189B09C007
:10084000189B07C0189B05C0189B03C0189B01C0CC
:10085000A1C0DF93C0911C01DD27CD5DDE4F189B49
:1008600002C0DF91EBCF2F930F931F9303B12FEFB4
:1008700000FB20F94F933F9313B14FEF012700FB8B
:1008800021F93BE031C04E7F012F13B1216028C018
:10089000102F4D7F2260000003B129C04B7F2460E0
:1008A000012F000013B12BC013B1477F28602AC06D
:1008B0004F7E03B120612CC04F7D13B120622FC049
:1008C0004F7B03B1206432C0422703B149934FEFFD
:1008D0000000102710FB20F913B11370C9F1297F14
:1008E00091F2012700FB21F903B1237F89F23150F6
:1008F00058F1102710FB22F913B1277E79F2012756
:1009000000FB23F92F7C81F203B1102710FB24F99F
:100910002F7971F200C013B1012700FB25F92F7365
:1009200059F200C003B1102710FB26F9223040F223
:1009300000C013B1012700FB27F9243028F64F77B8
:10094000206813B10000F9CF11E01CBB002717C0CD
:100950003B503195C31BD04011E01CBB0881033CC8
:10096000E9F00B34D9F020911A011981110F1213FB
:10097000EDCF093641F10D3211F0013E39F7009308
:1009800021013F914F911F910F912F91DF91CCB396
:10099000C0FD51CFCF91CFBFCF91189520912101AC
:1009A000222379F310911F01112311F5343012F134
:1009B00030931F0120931B0110911C013BE0311B60
:1009C00030931C0117C000911F0101308CF40AE51F
:1009D0003091000134FD10C000930001CFE0D1E060
:1009E0000FC02795A8F45150A9F4220F0000F9CFA9
:1009F0004AE503C042ED01C0432FC4E1D0E032E03C
:100A000014B11360289A14B905B120E413E05F9380
:100A1000012756E005B9279520F4515021F4220F03
:100A2000F9CF012756E000003B5A05B9D0F22795CF
:100A300028F4515029F4220F0000F9CF012756E085
:100A4000279505B920F4515021F4220FF9CF012741
:100A500056E02991332305B921F60C7F109120012E
:100A6000110FC651D04005B911F010931A0111E0D1
:100A70001CBB016014B11C7F402F4C7F5F9100C0F4
:100A800000C005B914B945B97CCFFC018181882328
:100A9000A1F4828180930301838180930401848186
:100AA0008093050185818093060183E091E0909316
:100AB0001E0180931D0184E00895863069F48281CF
:100AC00090910E018917B1F180930E0160910E0192
:100AD00080E090E08BD02EC0813021F48281938120
:100AE00006DB28C0823029F482816381448154DB93
:100AF00021C0833029F4828163814481E4DB1AC000
:100B0000843029F48281638144818BDC13C0853079
:100B100021F48281638192DC0DC0873069F49CDC12
:100B20008093030183E091E090931E0180931D0167
:100B300081E0089580E0089580E008952EE088E146
:100B400090E00FB6F894A895809360000FBE2093B4
:100B500060004EDE209A40E028EB3BE004C0A89500
:100B6000C9010197F1F74150D1F72098ABDA80E045
:100B700090E034D080930E017894239AA8954ADDB2
:100B80006BDC882311F42B98F9CF2B9AF7CF97FBC6
:100B9000092E07260AD077FD04D00CD006D00020FD
:100BA0001AF4709561957F4F0895F6F790958195A9
:100BB0009F4F0895AA1BBB1B51E107C0AA1FBB1F73
:100BC000A617B70710F0A61BB70B881F991F5A95D9
:100BD000A9F780959095BC01CD010895F999FECFB4
:100BE00012BC81BDF89A992780B50895262FF999EE
:100BF000FECF1FBA12BC81BD20BD0FB6F894FA9A81
:0C0C0000F99A0FBE01960895F894FFCFFA
:020C0C005AFF8D
:00000001FF
