:1000000045C05CC45EC05DC05CC05BC05AC059C026
:1000100058C057C056C055C054C053C052C051C03C
:1000200067C24FC04EC04DC04CC04BC04AC049C053
:1000300048C047C00403090420036D0061006C0040
:100040007400650070006F00650067006700650060
:100050006C002E0064006500100355005300420040
:10006000460075006E006B0012011001FF000008D1
:10007000C016DC05000101020001090212000101A5
:1000800000801909040000000000000011241FBEB8
:10009000CFEFD2E0DEBFCDBF11E0A0E0B1E0E2EEF5
:1000A000FCE002C005900D92A232B107D9F711E031
:1000B000A2E2B1E001C01D92AA35B107E1F7A2D5D5
:1000C0000EC69ECF109227011092280110922D018A
:1000D0001092290110922A0110922B0110922C01EA
:1000E0000895389A4098EEDF85E080932E0183E0F2
:1000F00085BDEEE6F0E080818160808308951F93E6
:10010000CF93DF9320E030E061E070E040E850E022
:10011000E22FA22FA695EB0102C0CC0FDD1FAA95FE
:10012000E2F7DE01A823B923109759F0E695E6958A
:10013000E695F0E0E65DFE4F1081D901A770B07042
:1001400019C0E695E695E695D901A770B07020FF35
:100150000DC0F0E0E65DFE4F1081EA0102C0D595CA
:10016000C795AA95E2F71C2B10830EC0F0E0E65D60
:10017000FE4F1081EA0102C0D595C795AA95E2F716
:10018000DE01A095A123A0832F5F3F4F28313105C9
:1001900009F0BECF1092290180912E018093270192
:1001A000DF91CF911F910895EF92FF921F93CF930C
:1001B000DF9320E030E050E0E0E8F0E070E090E035
:1001C000122F2A3058F4A22FA6957C0102C0F59474
:1001D000E794AA95E2F7E0FE16C009C02431C8F5FD
:1001E000D9011A97B595A7956A177B0761F41695FB
:1001F00016951695C12FD0E0C65DDE4F1881D90146
:10020000A770B0701BC0169516951695D901A770EA
:10021000B07020FF0EC0C12FD0E0C65DDE4F188148
:100220007F0102C0F594E794AA95E2F71E2918838E
:1002300040C0C12FD0E0C65DDE4F18817F0102C0F3
:10024000F594E794AA95E2F7D701A095A123A88396
:1002500030C0D9015497B595A795EA0102C0D5954C
:10026000C795AA95E2F7C0FF06C010912C01D901ED
:10027000A770B07013C0D901A770B07020FF0CC078
:1002800010912C01EF0102C0D595C795AA95E2F710
:100290001C2B10932C010DC010912C017F0102C06A
:1002A000F594E794AA95E2F7D701A095A123A0932E
:1002B0002C012F5F3F4F2831310509F081CF10927B
:1002C000290180912E0180932701DF91CF911F9109
:1002D000FF90EF9008951F93CF93DF9320E030E0DD
:1002E00050E0E0E8F0E070E090E0A22F283070F5F8
:1002F000A695EC0102C0D595C795AA95E2F7C0FF77
:1003000006C010912A01D901A770B07013C0D9019D
:10031000A770B07020FF0CC010912A01EF0102C03D
:10032000D595C795AA95E2F71C2B10932A0171C0A9
:1003300010912A01EF0102C0D595C795AA95E2F761
:10034000DE01A095A123A0932A0163C0203188F586
:10035000D9011897B595A795EB0102C0D595C7951A
:10036000AA95E2F7C0FF06C010912B01D901A77032
:10037000B07013C0D901A770B07020FF0CC01091ED
:100380002B01EF0102C0D595C795AA95E2F71C2B6A
:1003900010932B013EC010912B01EF0102C0D595A7
:1003A000C795AA95E2F7DE01A095A123A0932B01A2
:1003B00030C0D9015097B595A795EA0102C0D595EF
:1003C000C795AA95E2F7C0FF06C010912C01D9018C
:1003D000A770B07013C0D901A770B07020FF0CC017
:1003E00010912C01EF0102C0D595C795AA95E2F7AF
:1003F0001C2B10932C010DC010912C01EF0102C099
:10040000D595C795AA95E2F7DE01A095A123A09303
:100410002C012F5F3F4F2831310509F066CF109234
:10042000290180912E0180932701DF91CF911F91A7
:100430000895CF93DF9310922A0110922B01A0E030
:10044000B1E040E0E42FE695E695E695F0E0E65D64
:10045000FE4F2081220F220F20832D913C91119776
:10046000EC01C21BD30B9E01D7FF0DC012962D913C
:100470003C911397EC01C21BD30B9E01D7FD07C023
:100480008081836002C0808181608083C9014E5F6A
:1004900014964031B9F660932C0110922901809195
:1004A0002E0180932701DF91CF91089580932A0137
:1004B00060932B0140932C011092290180912E0111
:1004C00080932701089580932A016295607F60934D
:1004D0002B0181E08093290180912E0180932701D7
:1004E00008959091270181E0992309F480E008950F
:1004F00078941F920F920FB60F9211245F936F930F
:100500007F938F939F93AF93BF93EF93FF938091CC
:100510002701882309F4B6C080912901882321F09E
:10052000813009F0ADC04EC080912D01882321F0AB
:1005300080912801882319F480E880932801809114
:100540002D01803350F580912D0180FD0FC0409A20
:10055000E0912D01E295EF70F0E0E65DFE4F8081C5
:1005600090912801892331F18EE425C04098E091D3
:100570002D01E295EF70F0E0E65DFE4F80819091F5
:100580002801892311F084EC01C08EE486BD80919E
:1005900028018695809328010FC080912D0180331A
:1005A00021F4409A84EC86BD05C080912D018133F1
:1005B00009F4409884EC86BD80912D01803508F4C3
:1005C00059C050C080912D01882321F080912801CD
:1005D000882319F480E88093280180912D018230CE
:1005E00030F480912D018823B1F1409A18C0809198
:1005F0002D018B3180F580912D0180FD12C0409836
:1006000080912D0190E0029760E170E02BD3665D50
:100610007E4FFB018081909128018923E9F084ECD1
:100620001CC0409A80912D0190E0029760E170E03B
:1006300019D3665D7E4FFB0180819091280189234B
:1006400011F088E801C084EC86BD80912801869570
:100650008093280103C0409888E886BD80912D01D1
:10066000803240F010922D018091270181508093BB
:10067000270108C080912D018F5F80932D0102C05A
:1006800010922701FF91EF91BF91AF919F918F91B0
:100690007F916F915F910F900FBE0F901F901895F3
:1006A0001F93CF93DF9380913F01835087FD88C0D4
:1006B00090913C0120913B012D3209F07FC08830A0
:1006C00009F07CC0CCE0D0E0C91BD109CD5BDE4F86
:1006D00083EC80932F018AE5809320011092220100
:1006E0008881807619F0CE0116D25FC09A8110926F
:1006F00038018981882331F41092390128E331E0EF
:1007000082E04FC0853019F49093400140C086309C
:10071000A9F58B81813019F488E690E004C082301D
:1007200041F48AE790E090933E0180933D0182E19D
:1007300021C08330F1F4992341F484E390E0909355
:100740003E0180933D0184E015C0913041F488E37F
:1007500090E090933E0180933D0180E20BC0923087
:1007600041F488E590E090933E0180933D0180E163
:1007700001C080E090E49093220117C0883059F0C6
:10078000893019F49093420102C08A3039F028E38D
:1007900031E080E006C022E431E002C028E331E02D
:1007A00081E030933E0120933D019F81992321F404
:1007B0009E81981708F4892F8093210110923F01A0
:1007C0008091200184FF4CC0809121018F3F09F46A
:1007D00047C0182F893008F018E0811B8093210151
:1007E00080912F0198E8892780932F01112361F1CF
:1007F00080913D0190913E0130912201212F2150A5
:1008000036FF0EC030E0A9014F5C5E4FFC01A0E353
:10081000B1E064916D933196A417B507D1F70CC080
:10082000DC0130E0A9014F5C5E4FE0E3F1E06D9147
:100830006193E417F507D9F72F5F3F4F280F391F52
:1008400030933E0120933D0180E391E0612F32D04F
:100850001C5F1C3019F08FEF809321011093200151
:1008600084E193B1937031F48150D9F71092400133
:1008700010923A01DF91CF911F910895E9E6F0E0DF
:10088000808182608083E89A0895A82FB92F80E044
:1008900090E041E050EA609530E009C02D91822758
:1008A0009795879510F084279527305EC8F36F5F82
:1008B000A8F30895EADF8D939D930895CF93CFB762
:1008C000CF93C395189BE9F7189B09C0189B07C0E5
:1008D000189B05C0189B03C0189B01C0A1C0DF93E3
:1008E000C0913C01DD27CD5BDE4F189B02C0DF913C
:1008F000EBCF2F930F931F9303B12FEF00FB20F942
:100900004F933F9313B14FEF012700FB21F93BE0D9
:1009100031C04E7F012F13B1216028C0102F4D7FB1
:100920002260000003B129C04B7F2460012F00002A
:1009300013B12BC013B1477F28602AC04F7E03B18B
:1009400020612CC04F7D13B120622FC04F7B03B1BB
:10095000206432C0422703B149934FEF00001027B3
:1009600010FB20F913B11370C9F1297F91F201270F
:1009700000FB21F903B1237F89F2315058F1102790
:1009800010FB22F913B1277E79F2012700FB23F92E
:100990002F7C81F203B1102710FB24F92F7971F21B
:1009A00000C013B1012700FB25F92F7359F200C0D5
:1009B00003B1102710FB26F9223040F200C013B11A
:1009C000012700FB27F9243028F64F77206813B160
:1009D0000000F9CF11E01CBB002717C03B50319538
:1009E000C31BD04011E01CBB0881033CE9F00B3471
:1009F000D9F020913A011981110F1213EDCF093668
:100A000041F10D3211F0013E39F7009341013F9160
:100A10004F911F910F912F91DF91CCB3C0FD51CF1A
:100A2000CF91CFBFCF91189520914101222379F327
:100A300010913F01112311F5343012F130933F0131
:100A400020933B0110913C013BE0311B30933C0172
:100A500017C000913F0101308CF40AE5309120016C
:100A600034FD10C000932001CFE2D1E00FC02795E4
:100A7000A8F45150A9F4220F0000F9CF4AE503C0B1
:100A800042ED01C0432FC4E1D0E032E014B1136065
:100A9000289A14B905B120E413E05F93012756E0CA
:100AA00005B9279520F4515021F4220FF9CF0127E1
:100AB00056E000003B5A05B9D0F2279528F4515072
:100AC00029F4220F0000F9CF012756E0279505B938
:100AD00020F4515021F4220FF9CF012756E029913B
:100AE000332305B921F60C7F10914001110FC65137
:100AF000D04005B911F010933A0111E01CBB016020
:100B000014B11C7F402F4C7F5F9100C000C005B91D
:100B100014B945B97CCFFC0181818823A1F482817D
:100B20008093230183818093240184818093250114
:100B300085818093260183E291E090933E0180932A
:100B40003D0184E00895863069F4828190912E0100
:100B5000891709F453C080932E0160912E0180E023
:100B600090E015C08830A9F48281909159018917CD
:100B700009F444C08093590180915901823018F0E2
:100B800081E0809359016091590181E090E099D012
:100B900035C0813021F482819381B1DA2FC0823057
:100BA00029F4828163814481FFDA28C0833029F4EB
:100BB0008281638144818FDB21C0893029F4828165
:100BC0009381648136DC1AC0843029F48281638188
:100BD00044816CDC13C0853021F48281638173DC35
:100BE0000DC0873069F47DDC8093230183E291E0BE
:100BF00090933E0180933D0181E0089580E0089547
:100C000080E008952EE088E190E00FB6F894A89572
:100C1000809360000FBE2093600030DE209A40E099
:100C200028EB3BE004C0A895C9010197F1F74150BA
:100C3000D1F7209856DA80E090E03BD080932E01E7
:100C400081E090E036D0809359017894239AA8955A
:100C500027DD47DC90915901891711F42B98F7CFC4
:100C60002B9AF5CF97FB092E07260AD077FD04D0E3
:100C70000CD006D000201AF4709561957F4F08952E
:100C8000F6F7909581959F4F0895AA1BBB1B51E1E4
:100C900007C0AA1FBB1FA617B70710F0A61BB70BEC
:100CA000881F991F5A95A9F780959095BC01CD0191
:100CB0000895F999FECF12BC81BDF89A992780B5A5
:100CC0000895262FF999FECF1FBA12BC81BD20BD11
:100CD0000FB6F894FA9AF99A0FBE01960895F8940F
:020CE000FFCF44
:100CE20016118B08B205D902E601F300A2005100E9
:100CF20036001B001200090006000300020001007A
:020D02005AFF96
:00000001FF
