:1018000042C076C05BC05AC059C058C057C056C00D
:1018100055C054C053C052C051C050C04FC04EC03C
:101820004DC04CC04BC04AC049C048C047C046C06C
:1018300045C044C0040309041C0377007700770007
:101840002E00660069007300630068006C002E00C3
:10185000640065000E0355005300420061007300F0
:10186000700012011001FF000008C016DC05020123
:101870000102000109021200010100803209040086
:1018800000000000000011241FBECFEFD4E0DEBF37
:10189000CDBF11E0A0E0B1E0E8EDFFE102C00590AE
:1018A0000D92A630B107D9F711E0A6E0B1E001C072
:1018B0001D92AC33B107E1F748D18CC3A1CFA82F5B
:1018C000B92F80E090E041E050EA60956F5F58F4F6
:1018D0002D9138EF82279795879510F084279527CB
:1018E0003F5FC8F3F3CF0895EADF8D939D9308958A
:1018F000CF93CFB7CF93C395189BE9F7189B09C037
:10190000189B07C0189B05C0189B03C0189B01C0FB
:10191000A1C0DF93C0911F01DD27CA5DDE4F189B78
:1019200002C0DF91EBCF2F930F931F9303B12FEFE3
:1019300000FB20F94F933F9313B14FEF012700FBBA
:1019400021F93BE031C04E7F012F13B1216028C047
:10195000102F4D7F2260000003B129C04B7F24600F
:10196000012F000013B12BC013B1477F28602AC09C
:101970004F7E03B120612CC04F7D13B120622FC078
:101980004F7B03B1206432C0422703B149934FEF2C
:101990000000102710FB20F913B11370C9F1297F43
:1019A00091F2012700FB21F903B1237F89F2315025
:1019B00058F1102710FB22F913B1277E79F2012785
:1019C00000FB23F92F7C81F203B1102710FB24F9CF
:1019D0002F7971F200C013B1012700FB25F92F7395
:1019E00059F200C003B1102710FB26F9223040F253
:1019F00000C013B1012700FB27F9243028F64F77E8
:101A0000206813B10000F9CF11E01CBB002717C0FC
:101A10003B503195C31BD04011E01CBB0881033CF7
:101A2000E9F00B34D9F020911D011981110F121327
:101A3000EDCF093641F10D3211F0013E39F7009337
:101A400024013F914F911F910F912F91DF91CCB3C2
:101A5000C0FD51CFCF91CFBFCF91189520912401D8
:101A6000222379F310912201112311F5343012F160
:101A70003093220120931E0110911F013BE0311B86
:101A800030931F0117C00091220101308CF40AE548
:101A90003091000134FD10C000930001C2E1D1E09B
:101AA0000FC02795A8F45150A9F4220F0000F9CFD8
:101AB0004AE503C042ED01C0432FC4E1D0E032E06B
:101AC00014B11360289A14B905B120E413E05F93B0
:101AD000012756E005B9279520F4515021F4220F33
:101AE000F9CF012756E000003B5A05B9D0F22795FF
:101AF00028F4515029F4220F0000F9CF012756E0B5
:101B0000279505B920F4515021F4220FF9CF012770
:101B100056E02991332305B921F60C7F109123015A
:101B2000110FC651D04005B911F010931D0111E0FD
:101B30001CBB016014B11C7F402F4C7F5F9100C023
:101B400000C005B914B945B97CCF2F923F924F928E
:101B50005F926F927F928F929F92AF92BF92CF923D
:101B6000DF92EF92FF920F931F93CF93DF9388E161
:101B70000FB6F89480936000109260000FBE5E9ADA
:101B80002B985698239A14BE81E085BF92E095BFAA
:101B90004E99FDC180916900836080936900E89A45
:101BA000209A4AEF28EB3BE0C9010197F1F7415039
:101BB000D9F7209878945CE0E52EF12C44E5A42E2A
:101BC00048E1B42E38E3832E38E1932E24E3622ECD
:101BD00028E1722E94E7492E98E1592E82E6282EAC
:101BE00088E1382E00912201035007FD3FC180910A
:101BF0001F01E701C81BD109CA5DDE4F80911E019C
:101C00008D3209F0B4C0083009F02EC123EC2093C6
:101C100012013AE530930001109206018881807626
:101C2000D1F185B1802785B98CE091E090932101B5
:101C3000809320013981333079F48A81803339F4FB
:101C4000EC81E370F0E0EE5FFE4F808101C080E048
:101C500080930F0124E07CC0353009F476C0832FD7
:101C60008450863008F073C08A819B81909308016C
:101C700080930701393009F46AC02E81209309014D
:101C80008D81827080930A0130930B01888187FDDA
:101C900063C02FEF61C09A8110921B018981882354
:101CA00031F410921C018BE191E022E049C08530B3
:101CB00019F4909323013AC0863079F58B818130F5
:101CC00029F4309221012092200106C0823031F4A3
:101CD000509221014092200122E11BC08330C1F4C7
:101CE000992331F4709221016092200124E011C007
:101CF000913031F490922101809220012CE109C0B1
:101D0000923031F4B0922101A09220012EE001C066
:101D100020E090E4909306011BC0883059F0893090
:101D200019F49093250102C08A3039F08BE191E0DB
:101D300020E006C085E291E002C08BE191E021E065
:101D4000909321018093200103C021E001C020E095
:101D50008F81882329F008C080E88093060104C0A1
:101D60008E81821708F4282F209301017DC0809175
:101D7000060187FF79C080910901801708F4082FB8
:101D8000801B8093090111E0811110E080910B010B
:101D9000873010F420E061C06E010DC02091070172
:101DA00030910801C90101969093080180930701C1
:101DB0006991C90101D1FE01EC19E01778F350C017
:101DC00080910701909108018F739070009769F4DA
:101DD000F894E0910701F091080133E03093570047
:101DE000E895789407B600FCFDCF2E5FF894E0915B
:101DF0000701F09108018991999131E00C0130932C
:101E00005700E8951124789480910701909108017A
:101E1000029690930801809307018F73907000974A
:101E200041F01123D1F02017C0F080910A018823DE
:101E3000A1F0F894E0910701F0910801329785E054
:101E400080935700E895789407B600FCFDCFF8948E
:101E500091E190935700E8957894201708F4B0CF5B
:101E6000112311F0109201011092220180910001C2
:101E700084FF81C0809101018F3F09F47CC0082F4D
:101E8000893008F008E0801B8093010180911201E5
:101E900098E8892780931201002309F45BC0909190
:101EA000060197FF2BC080910901801708F4082FC5
:101EB000801B80930901C02EDD24E3E1F1E0CE0E0A
:101EC000DF1EEF0117C020910B0180910701909157
:101ED0000801273010F068D002C0FC01849188838B
:101EE0002196809107019091080101969093080135
:101EF00080930701CC15DD0531F72AC02091200120
:101F000030912101802F815096FF0EC090E0AC01EE
:101F10004C5E5E4FF901A3E1B1E064916D9331969F
:101F2000A417B507D1F70CC0D90190E0AC014C5E05
:101F30005E4FE3E1F1E06D916193E417F507D9F7A6
:101F40000196820F931F909321018093200102C07C
:101F5000093058F483E191E0602FC6DC0C5F0C304F
:101F600041F08FEF8093010104C08FEF8093010156
:101F70000EE10093000184E193B1937009F032CE39
:101F80008150D1F71092230110921D012BCE1AB867
:101F900014B8F8941DBA1092690085BF15BEE0917F
:101FA0001001F09111010995F999FECF92BD81BD03
:101FB000F89A992780B50895262FF999FECF1FBA70
:101FC00092BD81BD20BD0FB6F894FA9AF99A0FBE62
:081FD00001960895F894FFCF7B
:061FD8005AFF1E930A00EF
:0400000300001800E1
:00000001FF
