:1000000045C089C25EC05DC05CC05BC05AC059C0FB
:1000100058C057C056C055C054C053C052C051C03C
:10002000FCC04FC04EC04DC04CC04BC04AC049C0C0
:1000300048C047C00403090420036D0061006C0040
:100040007400650070006F00650067006700650060
:100050006C002E0064006500100355005300420040
:10006000460075006E006B0012011001FF000008D1
:10007000C016DC05000101020001090212000101A5
:1000800000801909040000000000000011241FBEB8
:10009000CFEFD2E0DEBFCDBF11E0A0E0B1E0EAE1FA
:1000A000F8E002C005900D92A230B107D9F711E037
:1000B000A2E0B1E001C01D92A733B107E1F787D3F9
:1000C000AAC39ECF389A4098109207011092080157
:1000D00010920C0183E085BDEEE6F0E08081816046
:1000E00080830895EF92FF921F93CF93DF9320E0D8
:1000F00030E050E0E0E8F0E070E090E0122F2A30CD
:1001000058F4A22FA6957C0102C0F594E794AA9515
:10011000E2F7E0FE16C009C02431C8F5D9011A97EC
:10012000B595A7956A177B0761F4169516951695F0
:10013000C12FD0E0C75FDE4F1881D901A770B07022
:100140001BC0169516951695D901A770B07020FFA3
:100150000EC0C12FD0E0C75FDE4F18817F0102C003
:10016000F594E794AA95E2F71E29188340C0C12FA1
:10017000D0E0C75FDE4F18817F0102C0F594E7949D
:10018000AA95E2F7D701A095A123A88330C0D90191
:100190005497B595A795EA0102C0D595C795AA953C
:1001A000E2F7C0FF06C010910B01D901A770B07033
:1001B00013C0D901A770B07020FF0CC010910B01C3
:1001C000EF0102C0D595C795AA95E2F71C2B1093B5
:1001D0000B010DC010910B017F0102C0F594E79453
:1001E000AA95E2F7D701A095A123A0930B012F5F59
:1001F0003F4F2831310509F081CF85E08093070119
:10020000DF91CF911F91FF90EF900895909107019A
:1002100081E0992309F480E008951F920F920FB6B0
:100220000F9211248F939F93EF93FF938091070177
:10023000882309F459C080910C01882321F0809112
:100240000801882319F480E88093080180910C014B
:10025000803350F580910C0180FD0FC0409AE091F1
:100260000C01E295EF70F0E0E75FFE4F8081909126
:100270000801892331F18EE425C04098E0910C01FA
:10028000E295EF70F0E0E75FFE4F8081909108010A
:10029000892311F084EC01C08EE486BD80910801B1
:1002A0008695809308010FC080910C01803321F462
:1002B000409A84EC86BD05C080910C01813309F41D
:1002C000409884EC86BD80910C01803540F01092FE
:1002D0000C018091070181508093070105C0809136
:1002E0000C018F5F80930C01FF91EF919F918F9193
:1002F0000F900FBE0F901F9018951F93CF93DF9311
:1003000080911D01835087FD88C090911A01209132
:1003100019012D3209F07FC0883009F07CC0CCE093
:10032000D0E0C91BD109CF5DDE4F83EC80930D0176
:100330008AE580930001109202018881807619F08D
:10034000CE0116D25FC09A8110921601898188234E
:1003500031F41092170126E131E082E04FC0853080
:1003600019F490931E0140C08630A9F58B8181302D
:1003700019F488E690E004C0823041F48AE790E006
:1003800090931C0180931B0182E121C08330F1F422
:10039000992341F484E390E090931C0180931B0126
:1003A00084E015C0913041F488E390E090931C0103
:1003B00080931B0180E20BC0923041F488E590E00D
:1003C00090931C0180931B0180E101C080E090E4C8
:1003D0009093020117C0883059F0893019F4909336
:1003E000200102C08A3039F026E131E080E006C009
:1003F00020E231E002C026E131E081E030931C01CF
:1004000020931B019F81992321F49E81981708F462
:10041000892F8093010110921D018091000184FFBA
:100420004CC0809101018F3F09F447C0182F8930DB
:1004300008F018E0811B8093010180910D0198E87C
:10044000892780930D01112361F180911B01909107
:100450001C0130910201212F215036FF0EC030E0E7
:10046000A901415F5E4FFC01AEE0B1E064916D9384
:100470003196A417B507D1F70CC0DC0130E0A90113
:10048000415F5E4FEEE0F1E06D916193E417F50797
:10049000D9F72F5F3F4F280F391F30931C0120934E
:1004A0001B018EE091E0612F32D01C5F1C3019F0EF
:1004B0008FEF809301011093000184E193B1937059
:1004C00031F48150D9F710921E0110921801DF917A
:1004D000CF911F910895E9E6F0E0808182608083EA
:1004E000E89A0895A82FB92F80E090E041E050EA03
:1004F000609530E009C02D9182279795879510F07F
:1005000084279527305EC8F36F5FA8F30895EADF6C
:100510008D939D930895CF93CFB7CF93C395189B99
:10052000E9F7189B09C0189B07C0189B05C0189BCA
:1005300003C0189B01C0A1C0DF93C0911A01DD2741
:10054000CF5DDE4F189B02C0DF91EBCF2F930F934F
:100550001F9303B12FEF00FB20F94F933F9313B18B
:100560004FEF012700FB21F93BE031C04E7F012F07
:1005700013B1216028C0102F4D7F2260000003B10D
:1005800029C04B7F2460012F000013B12BC013B191
:10059000477F28602AC04F7E03B120612CC04F7D69
:1005A00013B120622FC04F7B03B1206432C04227B9
:1005B00003B149934FEF0000102710FB20F913B14E
:1005C0001370C9F1297F91F2012700FB21F903B1D2
:1005D000237F89F2315058F1102710FB22F913B113
:1005E000277E79F2012700FB23F92F7C81F203B1EA
:1005F000102710FB24F92F7971F200C013B10127E5
:1006000000FB25F92F7359F200C003B1102710FB2E
:1006100026F9223040F200C013B1012700FB27F970
:10062000243028F64F77206813B10000F9CF11E08D
:100630001CBB002717C03B503195C31BD04011E0B5
:100640001CBB0881033CE9F00B34D9F02091180160
:100650001981110F1213EDCF093641F10D3211F04E
:10066000013E39F700931F013F914F911F910F9168
:100670002F91DF91CCB3C0FD51CFCF91CFBFCF91A0
:10068000189520911F01222379F310911D01112348
:1006900011F5343012F130931D012093190110919E
:1006A0001A013BE0311B30931A0117C000911D0164
:1006B00001308CF40AE53091000134FD10C0009344
:1006C0000001CDE0D1E00FC02795A8F45150A9F466
:1006D000220F0000F9CF4AE503C042ED01C0432FCD
:1006E000C4E1D0E032E014B11360289A14B905B126
:1006F00020E413E05F93012756E005B9279520F425
:10070000515021F4220FF9CF012756E000003B5A47
:1007100005B9D0F2279528F4515029F4220F000092
:10072000F9CF012756E0279505B920F4515021F45F
:10073000220FF9CF012756E02991332305B921F67D
:100740000C7F10911E01110FC651D04005B911F058
:100750001093180111E01CBB016014B11C7F402FE5
:100760004C7F5F9100C000C005B914B945B97CCF7A
:10077000FC0181818823A1F482818093030183811C
:100780008093040184818093050185818093060113
:1007900083E091E090931C0180931B0184E0089515
:1007A000813031F48281638144819CDC80E0089552
:1007B000823059F42BDD8093030183E091E0909324
:1007C0001C0180931B0181E0089580E008952EE0D4
:1007D00088E190E00FB6F894A895809360000FBE72
:1007E0002093600078DE209A40E028EB3BE004C0D4
:1007F000A895C9010197F1F74150D1F72098239AA4
:1008000061DC7894A89579DD01DD882311F42B98BB
:0A081000F9CF2B9AF7CFF894FFCF31
:02081A005AFF83
:00000001FF
